:020000040000FA
:1000000070030820BD010000C1010000C301000011
:10001000C5010000C7010000C90100000000000088
:10002000000000000000000000000000CB01000004
:10003000CD01000000000000CF010000D101000050
:10004000D3010000F11B0000711C0000D30100006F
:10005000D301000099070000D30100001B08000035
:10006000D30100007F3C0000D3010000D301000059
:10007000D3010000D3010000D3010000D301000030
:10008000D3010000D30100004F21000051210000E6
:100090005321000055210000D3010000D3010000CE
:1000A000D3010000D3010000D3010000D301000000
:1000B000CB4F0000D3010000D3010000D3010000AA
:1000C000D3010000D3010000D301000000F002F8CA
:1000D00000F064F80AA090E8000C82448344AAF17E
:1000E0000107DA4501D100F059F8AFF2090EBAE87C
:1000F0000F0013F0010F18BFFB1A43F0010318475C
:1001000070EC0000B0EC0000103A24BF78C878C151
:10011000FAD8520724BF30C830C144BF04680C600D
:10012000704700000023002400250026103A28BF55
:1001300078C1FBD8520728BF30C148BF0B60704759
:100140006E2906F02D81702906F07681642906F06B
:10015000EB80752906F0E880782906F06081632934
:1001600006F05D86732906F06286002070471FB591
:100170000EF0EEFB9DE8030007F0C6F907F0A8F9C2
:100180000400002000210EF09FF8401C606007F082
:10019000FBF81FBD10B507F060F910BD07F0EFFDCB
:1001A0001146FFF7E4FF00F0DAF907F08AFE03B426
:1001B000FFF7F0FF03BC03F00DF90000084800470B
:1001C000FEE7FEE7FEE7FEE7FEE7FEE7FEE7FEE707
:1001D000FEE7FEE703480449044A054B7047000068
:1001E000CD000000703F0010700308207043001025
:1001F00070EB07201F490BF09CB81E490BF030BA7A
:100200001C4B0BF001BA1B4B0BF036BA19490BF023
:100210008AB91948C16901B10847012070471748D8
:100220000421C160A0F54061816015494160114918
:1002300011488860704700207047002070470020F8
:100240007047002070470020704700207047002052
:100250007047002070470020704700207047002042
:10026000704770470020704700207047002070479B
:1002700000207047F40D001080EA00007C0C001094
:1002800060EA000003F07BBDFEE710B50AF0C8FD90
:100290000AF048FE0AF03AFE0AF0D4FD0AF022FE07
:1002A000BDE810400AF02CBD10B50CF0E1F80DF0DF
:1002B0002FF80CF035F9BDE810400CF04BB80BF0FE
:1002C000F9BE0BF0BBBC09B10020704708F0BEBFFF
:1002D000002008F027BB00207047704710B5044687
:1002E00006F0B8FC0068005DC00602D504F12000ED
:1002F00010BD204610BD704770477047FFFFFFFFDD
:10030000F0B57D482021C0F8A011D0F8A011490611
:10031000FBD500F180000324C0F884404FF00005B5
:10032000C0F82851C0F82C514FF00106C0F88C607D
:100330007249416006604FF0AA03C3604FF0550157
:10034000C160A0F18000D0F888205201FBD540F8B0
:10035000804FC360C160232242620662C362C162F1
:10036000A0F18000D0F8A8205205FBD500F188004C
:10037000846143624162624AC263C0F8405150F8EE
:100380008829604D6FEA12629207D0F80C2102F0C2
:10039000030207D0EAB3012A45D0022A49D0032A32
:1003A00050D13AE02AB1012A13D0022A22D0032ADE
:1003B00048D150F8882FC2F30742C66F521CF6B2DC
:1003C000761C724350F888694F4FC6F30E06761CB0
:1003D0000EE050F8882FC2F30742C66F521CF6B2E7
:1003E000761C724350F88869484FC6F30E06761C97
:1003F0007E4324E050F8882FC2F30742C66F521C98
:10040000F6B2761C724350F88869C6F30E06761C65
:1004100000E002E04FF47A47EAE7D0F804213C4ECE
:10042000D2B2521C0BE0D0F804213A4ED2B2521C88
:1004300005E0D0F804214FF4FA46D2B2521CB6FBC4
:10044000F2F22A60026822F4704242F480420260B2
:100450003148026C22F008020264026C42F0010290
:100460000264026C42F002020264026C42F0040276
:100470000264C26D42F00102C265C26D42F0020226
:10048000C265C26D42F00402C265026842F4803265
:100490000260C26942F48032C261026842F0805256
:1004A0000260026842F000620260C26942F00062CB
:1004B000C261C26942F08052C26100224FF47A7672
:1004C00042F210770020401CB042FCD3521CBA42CA
:1004D000F8D34FF0804004706FF07F4242600372A7
:1004E000017228686421B0FBF1F14FF0E020491E51
:1004F000416105210161F0BD00C00F4063000500AE
:10050000DE8728040000001000127A0000366E0119
:1005100000093D00001BB70000C0092010B5694C60
:10052000D4F88001800702D567A005F07FFED4F8DB
:100530008001400702D56AA005F078FED4F880015A
:10054000000702D56BA005F071FE734806F039F97B
:10055000D4F8800120F00100C4F8800110BDFFF73D
:10056000CFFE6E48016C21F400610164016C21F43E
:1005700080510164016E41F000710166016E41F02D
:1005800080610166016A41F480210162816F41F05E
:1005900000718167816F41F080618167816B41F4F7
:1005A00080218163016841F480310160C16941F4B7
:1005B0008031C161016841F080510160016841F002
:1005C00000610160C16941F00061C161C16941F030
:1005D0008051C161016C21F008010164016C41F09E
:1005E00001010164016C41F002010164016C41F000
:1005F00004010164C16D41F00101C165C16D41F0AB
:100600000201C165C16D41F00401C165016841F09D
:1006100040010160016841F400410160016841F05E
:1006200020010160016841F010010160816941F021
:1006300010018161816941F020018161816941F48A
:1006400000418161816941F04001816100F026F93A
:10065000FFF764FF04F046FA01F006FF02F04CFADF
:100660000AF01EFB05F01AFB03F015FFFF2003F054
:10067000AEFE01F038FB01F077FD03F00DFB03F057
:1006800076FE27A005F0D2FD234806F09AF8AA26A8
:100690007407552501F04CFA01F02DF904F01EF80D
:1006A00004F081FA04F04FF902F0A7FA0AF0B2FD63
:1006B00005F0ABFB26722572FFF7E4FD01F00CFD9F
:1006C000E8E7000000C00F405B455854525D5B52A4
:1006D000657365742045787465726E5D0D00000069
:1006E0005B574454525D5B526573657420574454A4
:1006F0005D0D00005B424F44525D5B526573657453
:100700002042726F776E2D4F757420446574656357
:10071000746F725D0D0D0000BCEA072000C0092057
:100720005B53746172745D0D0000000070B50024AD
:100730002025264638B9086070BD222A01D122251D
:10074000012400F8016B0278202AF6D0222AF4D086
:10075000024606E014B1222B0DD001E0202B0AD076
:10076000521C13780D2B06D00A2BF3D103E0167020
:1007700004B165B1521C1378AB42F8D00D2BF6D002
:100780000A2BF4D0212BF2D013781BB901E0521CB4
:10079000FAE700220A6070BD10B5052001F072F979
:1007A000FF4800780023FF4CFF49132828D006DCBF
:1007B00008280AD00D2814D011281AD120E01B28AF
:1007C0000BD021280DD07F2813D1CA68DAB1521E70
:1007D000CA604A68521E4A6012E0486803704C6062
:1007E00010BD4A6802F8010B4A60C868401CC86026
:1007F0000A204A6802F8010B4A60CA68521CCA60A3
:10080000CA689E2A01D20A28EAD1486803700120EA
:10081000087048704C60CB6010BD10B5072001F027
:1008200031F9E24800780023DE4CDF49132828D054
:1008300006DC08280AD00D2814D011281AD120E08F
:100840001B280BD021280DD07F2813D18A68DAB15C
:10085000521E8A604A68521E4A6012E0486803705D
:100860004C6010BD4A6802F8010B4A608868401C61
:1008700088600A204A6802F8010B4A608A68521CA4
:100880008A608A689E2A01D20A28EAD148680370E1
:10089000022008704870C1E9014310BD2DE9F04104
:1008A000C348016841F010010160016841F0400156
:1008B0000160C04A116841F008011160B8494FF069
:1008C00083060E734FF000030B714FF00D0C81F88F
:1008D00000C04FF003070F734FF001044C604FF05E
:1008E00006050D72016841F480110160016841F450
:1008F00080010160106840F080701060AB480673A2
:10090000037180F800C0077344600572A648A549CA
:10091000C0E90113C3604FF0070001F09BF8BDE888
:10092000F041052001F096B858B1012809D09F4A3E
:10093000022800D0A04A107D8006FCD5C8B21070F5
:100940007047974A0028F6D09C4AF4E750B1012836
:1009500008D09649022800D09749087DC007FCD0EE
:10096000087870478E490028F7D09449F5E750B1D0
:10097000012808D08D49022800D08F49087DC00782
:1009800000D00878704786490028F7D08B49F5E7F2
:1009900010B504460B4603E05B1C2046FFF7C4FF7E
:1009A00019780029F8D110BD4FF08040844941608A
:1009B0004FF0AA0101724FF055010172FEE770B5C8
:1009C00006468048054605F0D4FEC4B230787E491C
:1009D000312806D0302808D032280ED007227BA13B
:1009E00031E0087840F0200002E0087820F0200094
:1009F0000870C0F3401278A125E06A48A021A03811
:100A000006F073F87078302823D0312825D03F289D
:100A10002AD007226DA16348A03805F01DFC2846A6
:100A200005F0A7FEA04204D000226DA1284602F0E6
:100A300042FB5C48A038007800281BD1284605F00E
:100A400098FE024669A1BDE870405648A03805F0FE
:100A500003BC5C4867A1883802E05A4866A1883820
:100A60000988A0F88810DAE7284605F082FE0246D9
:100A70005EA1D0E770BD2DE9F05F4FF6FF774FF430
:100A800048743A4621465D4806F027F822465C49FC
:100A90005A4805F0ABFF57A003F03CFA4148A03894
:100AA0000078452863D00024DFF850B1DFF850A16A
:100AB000254626463BF81400A0F57F428146FF3AC2
:100AC0003ED0B9F1100F3BD3761CB6B23AF8140001
:100AD0000DF0C4FC074688464FF03332494B0DF009
:100AE0000DFD3A4643460DF03DFE07468846484612
:100AF0000DF0B4FC3A4643460DF0FEFD1BD83AF823
:100B000014000DF0ABFC074688464FF033323D4BE6
:100B10000DF0F4FC3A4643460DF0ECFB07468846E0
:100B20003BF814000DF09AFC3A4643460DF0AAFC3F
:100B300001D86D1CADB2641CA4B2B4F5C87FB9D3A2
:100B400031A1B54200D031A133462A4630A005F08C
:100B50006DFB3A4805F035FEB54201D138A100E001
:100B600039A1BDE8F05F0F48A03805F075BBBDE8BE
:100B7000F09F30B587B00446142101A805F0D7FFD7
:100B80002078302866D031287ED032287DD03F288A
:100B90007CD0044807220DA1A03805F05DFB57E08A
:100BA00000C0004004C1072000C0072000800940A9
:100BB00000C00240C4C00F4000C009400000014016
:100BC000FFFF0300880E00103CC007204552524F23
:100BD000522025750000000053574920257500005C
:100BE0006366672E63666700000000005357492064
:100BF000322575003000000031000000C4C5072018
:100C0000A4C207203333D33F4F555400494E000050
:100C10005B5357494E472025732E2E2E4163657234
:100C2000746F733A25752E2E2E416C6C2070756C86
:100C300073653A25755D0D0D00000000BCEA0720C4
:100C40004F4B2031000000004F4B203000000000CF
:100C500007B030BDAFF260016078312801D0AFF24B
:100C60006C0101A805F073FE0222AFF28C0101A80D
:100C700002F021FA01A9FD4805F069FE6078FCA1A7
:100C8000312800D0FCA102E011E02AE043E001A8F5
:100C900005F05DFE01A90220FFF77AFEF8A102200F
:100CA000FFF776FEF7A1F84805F0D6FA50E0AFF26C
:100CB000B8016078312801D0AFF2C80101A805F071
:100CC00046FE0322AFF2E80101A802F0F4F901A9FF
:100CD000EE4805F03CFE6078EDA13128D3D0EEA1BE
:100CE000D1E7AFF2EC016078312801D0AFF2FC011E
:100CF00001A805F02CFE0422AFF21C1101A802F09D
:100D0000DAF901A9E64805F022FE6078E5A131286C
:100D1000B9D0E6A1B7E7E24805F02BFD0446DB4871
:100D200005F027FD0546D14805F023FD02462B4678
:100D3000E0A1D548009405F08FFAE2480078022837
:100D400006D1D149FFF724FECDA10220FFF720FEF6
:100D5000D34805F00EFD08B1DBA400E0DCA4CB48CD
:100D600005F007FD08B1D8A500E0D9A5BF4805F0FA
:100D700000FD08B1D4A100E0D5A123462A46D6A0A3
:100D800005F054FADF4805F01CFD08E700B5DE4821
:100D900085B0AFF2B8110268684605F05DFA052229
:100DA000AFF2C411684602F086F9B6A1B64805F064
:100DB00053FA05B000BD70B5044605F0DAFC1828FA
:100DC00016DA2178A1B1D04D3F290AD0204605F08E
:100DD000D0FC01218140286801432960BDE87040B2
:100DE000D4E72A68C9A1BDE87040A74805F034BA25
:100DF0000722AFF22821F6E710B5044605F0B9FC4A
:100E000018280DDA207858B1204605F0B2FC0121EF
:100E10008140BD4802688A430260BDE81040B5E7E2
:100E20000722AFF25821BDE81040974805F014BAE8
:100E300010B588B004462021684605F078FEB5A1BB
:100E4000684605F0C7FD2146684605F0C3FD002051
:100E50006B460246195C0D2903D00A2901D02129CD
:100E600000D11A54401CC0B21E28F3D319460220E8
:100E7000FFF78EFD82A10220FFF78AFD81A1824843
:100E800005F0EAF908B010BD2DE9F74F7E480D4690
:100E9000002416462746A021A03005F026FE072094
:100EA00000F0D8FD4FF0AA0B4FF080484FF0550AE4
:100EB00075489AA1A03005F038FD68BB72480078EB
:100EC000452829D0009803F055F8D94688F808B08D
:100ED00088F808A05FB94EB1924F00F029FE38782B
:100EE0000028FAD0641CE4B2B442F6D30127002DE6
:100EF000DED0CB46DFF82C92002488F808B088F8C2
:100F000008A000F015FE99F800000028F5D0641C38
:100F1000E4B2AC42F1D3CBE7072000F0A7FD5A487A
:100F2000A021A03005F0E1FD00207F49012404FA52
:100F300000F20B68401C9343C0B20B600F28F6D937
:100F40007A49FF2008705048007845280CD10320CA
:100F500003F034F976A14C4805F03CFD03B04A4952
:100F6000BDE8F04F002013E5BDE8FE8F2DE9F0430A
:100F700091B0054600200F900126342102A805F00B
:100F8000D6FD68788DF83C00A8788DF83D000FA854
:100F900005F0EFFB5C49C4B2B04608FA04F00968FA
:100FA0008146084213D0072000F060FD052000F0C4
:100FB0005DFDDFF878C15C4A2878172C0AD9302803
:100FC0004CD00722AFF2FC312F4805F045F911B0A3
:100FD000BDE8F0833028F3D0564D0020297803E097
:100FE0000B2801D1CB073AD0136808FA00F7BB43AE
:100FF000401CC0B213601728F2D98CF8004049EAAF
:101000000300106003F03AFD2E4F3878032804D017
:10101000042802D0002003F0D1F8F4B1012C1FD035
:10102000022C1ED0032C1DD0042C1CD0052C1BD050
:10103000062C1AD0072C7FD0082C7ED0092C7DD00E
:101040000A2C7CD00B2C7BD00C2C7AD00D2C79D098
:101050000E2C78D00F2C77D077E09CE0D3E196E08F
:10106000B0E0B6E0BCE0C1E0D9E0DEE02EC0072091
:1010700054444920303100005444492030300000AD
:10108000210000004F4B000064C0072031C0072042
:10109000544449203131000054444920313000008B
:1010A00034C00720544449203231000054444920C0
:1010B00032300000544449202575202575202575BF
:1010C0000000000000C0072044494D4D455200007B
:1010D0004F4E4F46460000005B54797065204469CE
:1010E0006D6D6572277320636F6E6669673A203095
:1010F0003A25732E2E313A25732E2E323A25735D02
:101100000D000000BCEA072030000010454E5420BE
:10111000257500005345542000000000544F552011
:101120003030300013C0072040C0072016000010E8
:101130000D0D00003CC0072086E08BE098E0A7E0A2
:10114000ACE0B7E0BCE0D5E0DAE00DF13C08FF48E8
:10115000112C81466FD0FE4F132C6DD0152C6CD006
:10116000172C7FF434AF287840F34011491C61F309
:1011700045102870484605F0FCFA002870D03A78EF
:10118000D21CAFF274010FA805F066F802E11368F3
:1011900043F400632CE72878410701D4EDA100E077
:1011A000EDA1EEA30988ADF83C1040F3800101F1F8
:1011B000010161F382002870400700D4E8A32246B1
:1011C000E8A1F9E0AFF2D4500088ADF83C00ECA102
:1011D0009BE0AFF2DC500088ADF83C00ECA194E05D
:1011E000EEA0EFA10088ADF83C008EE02878000763
:1011F00002D4AFF2581101E0AFF268110FA805F068
:10120000A6FB2878D5A240F3C00101F1010161F3EA
:10121000C3002870000700D4D1A2E4A166E0E8A0D2
:10122000E8A10088ADF83C006FE0EAA0EAA10088E0
:10123000ADF83C0037E06CE091E09BE00522002136
:101240000FA8FFF721FEC7E0E6A0E7A10088ADF8F0
:101250003C0028E0E7A10FA805F079FBE6A10CE02F
:101260008FE0052200210FA8FFF70EFE00260AE0FE
:10127000E5A10FA805F06BFBE4A102A804F0ECFFC8
:1012800038780228EDD0287820F01000287096E0F9
:10129000E2A0E3A10088ADF83C0004E0E4A0E5A1F1
:1012A0000088ADF83C0002A804F0D6FF3878022888
:1012B000C4D084E0E3A10FA805F049FBE2A1DCE77C
:1012C0002878C00601D4E4A100E0E4A10FA805F04D
:1012D0003EFB2878E2A240F3001101F1010161F325
:1012E00004102870C00600D4DFA2E1A102A804F017
:1012F000B3FF64E0E1A10FA805F029FBE0A104E041
:10130000E3A10FA805F023FBE2A102A804F0A4FFCB
:1013100055E02878800701D4E2A100E0E2A1404630
:1013200005F015FB287840F34001491C61F34100AA
:101330002870484605F01DFA10B1AFF2307201E096
:10134000AFF23C72287885A1830700D484A1CDE94F
:10135000008182A3800600D481A3D4A12CE0387838
:101360001E2801D2401C0AE0C2B2D21CAFF260219A
:10137000404609E738781028F6D9A0F10100387006
:10138000F2E72878800601D4D3A100E0D3A10FA80A
:1013900005F0DDFA484605F0ECF910B1AFF29472B1
:1013A00001E0AFF29C7239786CA3CDE90081287816
:1013B000800600D46AA3CAA102A804F04DFF5EB162
:1013C0000FA802F0D7FDD048007845280ED022465D
:1013D000CEA1CD4804F040FF02AB0FAA2146CDA01C
:1013E00004F024FFD24805F0ECF9F0E5032002F008
:1013F000E5FEAFF2C421C44805F0ECFAC249002072
:10140000FFF7C6FAE8E7002008FA00F11368401C6D
:101410008B43C0B213601728F6D9FF208CF8000068
:10142000D5E5F0B5044600780025C24EC24F89B01C
:101430003F2825D02021684605F079FB112221465E
:10144000684605F09BFB9DF800006B463038C4B23F
:101450000020191849781954401CC0B21428F8D338
:1014600004204FF0000C195CA1F130020A2A01D2CD
:10147000072C00D901250D2932D00A2930D031E0BE
:101480006078303803280CD8C0B2ACA102F060FEFE
:1014900028B16378AD4A303BADA19B481CE00E22D9
:1014A00030E0B248ACA2007800B1B04A3378A8A1CD
:1014B000954804F0D1FE3078C0EB001007EB4001F6
:1014C000AA4805F087FB002808D03378A0A1C3EB19
:1014D000031007EB4002A54804F0BEFE09B0F0BDC2
:1014E00003F800C0401CC0B21028BCD3184605F059
:1014F00052FA102805D19EA1684605F016FA00B1EF
:1015000035B10722AFF63C117F4804F0A5FEE5E7B0
:101510002146684602F0FCFD0028C0D0204602F0BB
:1015200056FFC4EB041007EB40052A46234688A16A
:10153000754804F091FE8F480078012805D06A466E
:1015400021468DA004F072FE24E127E1880E0010F0
:101550001400001033000000340000004F4E000063
:101560004F4646005B546F75636820282575292017
:10157000504F5745522025732054565D0D000000F2
:101580005B534F555243452054565D0D00000000FB
:101590005B43482D2054565D0D00000032000000D2
:1015A0005B43482B2054565D0D0000005B504F57A5
:1015B000455220257320484F4D455D0D0000000029
:1015C000370000005B534F5552434520484F4D456F
:1015D0005D0D0000350000005B564F4C2D20545629
:1015E0005D0D0000360000005B564F4C2B2054561A
:1015F0005D0D0000313600005B4C45465420484FDD
:101600004D455D0D00000000313700005B52494739
:101610004820484F4D455D0D000000003800000097
:101620005B564F4C2D20484F4D455D0D000000008E
:10163000390000005B564F4C2B20484F4D455D0D47
:1016400000000000313800005B444F574E20484FE7
:101650004D455D0D000000003132000031330000C7
:10166000504C4159000000005041555345000000C6
:101670005B257320484F4D455D0D0000313400005F
:101680005B4241434B20484F4D455D0D000000003B
:10169000313500005B4E45585420484F4D455D0D97
:1016A0000000000033340000333500005B25735D1B
:1016B000205B5357494E472025735D205B495220DC
:1016C00049443A25735D205B504F5745522025739E
:1016D0002041525D0D00000033360000333700001A
:1016E0005B25735D205B5357494E472025735D2072
:1016F0005B49522049443A25735D205B54454D5067
:10170000202575B05D0D000064C007204F4B2025DB
:10171000750000005B546F7563683A25755D205B4A
:1017200049522049443A25735D2025730D0000007D
:10173000BCEA07201500001034C9072044494D4D6C
:1017400045525C5343454E455F000000F8C80720F2
:10175000257325750000000053455420303030308B
:1017600030303030303030303700000016C90720BC
:101770005345540000C0072043656E612025752045
:10178000636F6E66696775726164613A2025730DD7
:1017900000000000C14805F014F89FE62946022029
:1017A000FFF7F6F8AFF228710220FFF7F1F82946AB
:1017B000BB4805F0CCF8347090E670B504F0D9FF62
:1017C000C4B2042C07D30722AFF60041BDE8704035
:1017D000B44804F041BDB448C4EB041100EB41012E
:1017E0000D460220FFF7D4F8AFF26C710220FFF72C
:1017F000CFF82946AA4805F0AAF8AC4823462A465D
:101800000470AFF2B401BDE87040A64804F024BDF6
:1018100070B504460078302803D00722AFF6544153
:1018200023E06078A24D312803D1284604F0A1FFBF
:1018300018B16078302805D015E09D488B38AFF698
:10184000484107E0284604F094FF60B198488B387F
:10185000AFF660410988A0F88B100122AFF68041F5
:10186000284601F028FC2A4692A1BDE870408D4828
:1018700004F0F2BC10B5017830290BD0312911D019
:1018800032292BD00722AFF6BC41BDE81040854875
:1018900004F0E2BC4078302802D0312287A106E073
:1018A0003022FBE74078302816D0312288A17D48CD
:1018B00004F0D2FC7B498BA004F0B8FC774804F01C
:1018C00080FF78490220FFF763F8AFF64801BDE8D2
:1018D0001040744804F0C0BC3022E7E7407830285C
:1018E00002D0312280A1E2E73022FBE7AFF66C01A3
:1018F0006C4804F0B1BC2DE9F84F804D00242878E5
:10190000002871D000274FF080486F704FF0AA096F
:1019100088F808904FF0550A88F808A06148694691
:10192000A030FEF703FF0646007808B134461DE0FC
:10193000A878411CA9700A280DD371A004F076FC88
:10194000564804F03EFF7549C8F8041088F808901E
:1019500088F808A0FEE70022AFF69051514804F045
:101960007BFC19E004F052FC04F8010B207808B16C
:101970002028F7D1DFF8A881002404EB440108EB0C
:101980008101304605F026F990B1641C152CF4D382
:10199000152CE0D0062C19D028784249012828D0EF
:1019A0001CB30C2C21D00D2C1FD0112C1DD00DE000
:1019B00004EB440108EB8100816800988847AF7010
:1019C000E6E7032000E0012002F0F8FB55A13548CE
:1019D00005F000F82878022813D001280DD003283C
:1019E0001BD0042820D00CE032E0042801D00328CA
:1019F000ECD108784528E6D1E3E72A490020FEF734
:101A0000C7FF2848A021A03005F06FF8A021254885
:101A100005F06BF8687890B112E0224804F0BBFF43
:101A2000C1B20123404805E01E4804F0B4FFC1B232
:101A30003E48002302781B4804F0AFF9DDE72F7021
:101A4000AF600720EF6000F005F8052000F002F815
:101A5000BDE8F88F00F01F020121914040094FF0CE
:101A6000E02202EB8000C0F80011704700F01F0276
:101A70000121914040094FF0E02202EB8000C0F8C4
:101A80008011704700F01F020121914040094FF082
:101A9000E02202EB8000C0F880127047BCEA072009
:101AA00016C9072064C0072034C90720150000109C
:101AB0008B0E001046554E203025730053455420A0
:101AC0002E2E2E2E2E2E2E2E2E25632E2E21000073
:101AD000534554202E2E2E2E2E2E2E2E2E2E2563A6
:101AE0002E21000025730D00534554202E2E2E2E3E
:101AF0002E2E2E2E2E2E2E256321000000C0072014
:101B00005B4641494C20434D442E2E7265737461EF
:101B10007274206E6F775D0D00000000FFFF030000
:101B200060E900000D0A00004D0000104E0000109A
:101B30008A4B0020D97801B1D870197901B1187198
:101B4000997901B19871597901B158714FF0E0213B
:101B50000969C90328D501221A715978491CC9B2EB
:101B60005970032901D358709A719978491CC9B2E8
:101B70009970052901D398705A711978491CC9B216
:101B800019700A2910D318707548DA70416F8901ED
:101B900004D4816F41F00071816703E0C16F41F0AF
:101BA0000071C1670BF0CABE704770B542F22734AE
:101BB000614300220223FF240425012660B101288D
:101BC00009D168484360C260816104604561466034
:101BD0004168C907FCD170BD4FF040204360C2602E
:101BE00081610460456146604168C907FCD170BDF0
:101BF00070B54FF04021012008605848D0E9043109
:101C00005B1C41F10001C0E9043157480078FF280E
:101C100013D05648564C4FF0010100782268C50792
:101C20005148007801FA00F141EA02001DD0DB07BB
:101C30001BD08A43226002F021FF4E4804F099FD38
:101C4000002814D04C4C2068401C206032280ED153
:101C5000152000F06BF86420206048A004F0E6FA3C
:101C6000BDE870404B4804F0ACBD2060E3E770BDB8
:101C70003C49012008603948D0E90212491C42F170
:101C80000002C0E90212704728B13649486840F0A6
:101C90000200486070474FF04021F7E710B501237C
:101CA00068B12E480021C0E902110120FFF7ECFFC6
:101CB0002C4843600220BDE8104000F037B80020F7
:101CC000FFF7E2FF4FF0402043600120F3E70021DF
:101CD00020B124484160022000F034B84FF0402089
:101CE00041600120F8E770B52B49002008701D48BD
:101CF0004FF0640181614FF0030545614FF001062B
:101D00004660164C4FF00000C4E902004FF002009C
:101D100000F018F84FF0402020498161456146608D
:101D20000020C4E90400BDE87040B7E700F01F02DE
:101D30000121914040094FF0E02202EB8000C0F801
:101D40000011704700F01F020121914040094FF03F
:101D5000E02202EB8000C0F88011704710C007201D
:101D600000C0092000800040160000103CC0072081
:101D700040C007208B0E001008000010456E616205
:101D80006C652045494E54332E2E2E524356204921
:101D9000520D0000BCEA072002E400E0D01213005C
:101DA0002DE9F04F00244FF6FF7B91B02546012628
:101DB000A0465A464FF44871FA4804F08EFE4FF0A0
:101DC000804AAA218AF8081055218AF808100020B4
:101DD000FFF77DFFF44F0023F4483B8001220260AF
:101DE0000221416042609946F0480168C90705D068
:101DF00001210160388800F101003880AA218AF8A9
:101E0000081055218AF80810BEB3E948416D09074A
:101E100006D4C16B41F48021C16345B1002505E0C2
:101E2000816B41F4802181630DB90125641CB4F5F7
:101E3000C77F0BD95A464FF44871DA4804F04DFE7B
:101E400000240120A7F8009026468046D54BCC46BA
:101E5000484633F814105A46594500D00846398888
:101E6000084480B2D34923F81400A7F800C0B1EBAE
:101E7000800F03D8CB4921F8142001E0002EB3D104
:101E8000CA49C1F804900A2C02D9B8F1000F0ED04B
:101E9000052C05D9C8A004F0C9F9CD4804F091FC7F
:101EA0000020FFF7FBFE002011B0BDE8F08F2146B7
:101EB000C8A004F0BBF9C64804F083FC4FF448778F
:101EC0003A46B849CD4804F091FDCC4904245D461A
:101ED00031F814008946A84218D04E46102815D96A
:101EE000462C0FD3C6A004F0A1F9B94804F069FC50
:101EF00020464FF4C87102E026F81050401C88427A
:101F0000FAD303E0641CB4F5C87FE1D3241F00209A
:101F1000A3468046AA2148070172552101724FF657
:101F2000FF724FF448719F4804F0D7FD202108A8A4
:101F300004F0FDFD4346B8A2BAA108A804F08CF94C
:101F4000BBA108A804F0A3FC07007ED000252C4606
:101F50002021684604F0EBFDEA46924E18E0232863
:101F600007D00D280FD00A280DD00AF80400641CF1
:101F70000EE0684604F0FDFB80B226F8150010283C
:101F80000BD96D1C04E02021684604F0D0FD00242C
:101F9000384607F0FDFD411CE1D1384604F09EFCB7
:101FA00004204FF6FF724FF4C87A36F810109142B1
:101FB0000ED010290CD9462807D3514602E026F846
:101FC0001020401C8842FAD302E0401C5045ECD35C
:101FD0003088904271D0708890426ED0B088904224
:101FE0006BD0042400256F4931F81400A0F57F421E
:101FF000FF3A3AD0102838D30CF030FA06460F4694
:102000004FF033328B4B0CF079FA32463B460CF0F2
:10201000A9FB06460F4639F814000CF01FFA3246A9
:102020003B460CF069FB20D85E4830F814000CF0F9
:1020300015FA06460F464FF033327E4B0CF05EFA2F
:1020400032463B460CF056F900E03DE006460F46AE
:1020500039F814000CF002FA32463B460CF012FA42
:1020600003D86D1C641C5445BDD35B462A464146CB
:1020700071A004F0DBF8564804F0A3FBABF10500B7
:10208000854221D30A3085421ED8414674A004F00F
:10209000CDF84F4804F095FB0020FFF7FFFD08F056
:1020A000FF0002F000F978494FF4FA7008607749B0
:1020B000000108600120F7E6FFE7414674A004F044
:1020C000B5F8434804F07DFB08F101008046042880
:1020D000FFF420AF74A0DEE670B5354C606D0007EC
:1020E00004D4E06B40F48020E06303E0A06B40F494
:1020F0008020A063744804F03CFB744D002698B126
:102100002878B8B16878401CC0B26870142810D321
:10211000606D00074FF0150014D400F0DDF8FFF7F4
:102120003FFE2D2068600FE0152000F0D5F86E709E
:102130006E6070BD6868642802DB152000F025F829
:102140006E7070BD00F021F86E702E7070BD70471B
:10215000704770475E48016841F0080101605B49C3
:102160004FF0010008707047114810B5016C21F064
:10217000080101645748016841F0080101604FF00F
:10218000150000F002F8012010BD00F01F0201212F
:10219000914040094FF0E02202EB8000C0F80011AE
:1021A00070470000A4C207200E000010008000400D
:1021B00000C00920C0D401005B4572726F722043D9
:1021C0004D44204952205363656E655D0D0000004B
:1021D000BCEA07202A2A2A2A2A0D5B495220526586
:1021E0006365697665722E2E2E416C6C2050756C7D
:1021F0007365733A25755D0D00000000C4C50720A6
:102200005B4C696D6974656420746F203730207091
:10221000756C7365735D0D00434D4449525C4952C2
:102220005F000000257325752E54585400000000EF
:10223000720000003333D33F5B49522025752028BC
:102240005344292E2E2E41636572746F733A25759F
:102250002E2E2E50756C736F733A25755D0D000030
:102260005B4952205363656E6520666F756E642E00
:102270002E2E5363656E652025752052756E5D0D9B
:102280002A2A2A2A2A0D0D002000001024000010FE
:102290005B49522025752028534429206E6F7420F5
:1022A000666F756E645D0D005B4952205363656E09
:1022B00065206E6F7420666F756E645D0D2A2A2A24
:1022C0002A2A0D0D000000008B0E001004000010E3
:1022D000AC800240B480024000F01F020121914016
:1022E00040094FF0E02202EB8000C0F8801157E770
:1022F000584951F86C0C40F4001041F86C0C564AE7
:10230000106A40F400101062506B40F400105063EB
:102310005248C368C360136A23F000731362C26833
:1023200022F44072C260C26842F44072C260C26865
:1023300022F47032C260C26842F47032C260C86F68
:1023400020F44060C867C86F40F48060C8674448A4
:102350004FF00A0101614FF0070101604FF00201E7
:1023600041604FF0010070473B48016A21F40011C1
:1023700001623A48C168C160C16821F44071C1601E
:10238000C16821F47031C1603648016821F44061B0
:1023900001603348016921F0FF01016101686FF3B9
:1023A0000F010160416821F00F0141604FF0010011
:1023B00070472B498860C868C006FCD48868C0B2E2
:1023C000704710B50022264B06E0845C9C60DC68F8
:1023D000A407FCD59C68521C8A42F6D300E098689A
:1023E000D86810F0140FFAD1012010BD30B50022CA
:1023F0001B4BFF2506E09D60DC686407FCD59C68EC
:102400008454521C8A42F6D3012030BD00F5EA31D3
:10241000BF31B1FBF0F000B90220C10700D0401C71
:10242000FE2800D9FE200E490861012070470A49A4
:102430000028486B02D040F4001001E020F40010A6
:1024400048630120704704490020496B890100D48A
:102450000120704730C10F4000C0092000C0024079
:1024600000800840ACC10F4010B5F9A003F0DEFEBB
:10247000002007F09DFB58B1012804D0F9A003F01B
:10248000D5FE022010BDFDA003F0D0FE012010BD3E
:10249000FDA003F0CBFEFF4804F093F9002010BD2F
:1024A0002DE9F0410546084616460024FAA104F03D
:1024B000EEF907000ED0A046384607F069FB411C34
:1024C0000BD0B4420DD10D28F6D00A280BD005F858
:1024D000010BF1E70120BDE8F081384604F0FEF978
:1024E000F8E70A28E8D1641CE4B285F80080B44219
:1024F000E2D9384604F0F2F90020ECE770B5E7A124
:10250000E9A003F093FEE34804F05BF9E2A1E3A045
:1025100004F0BDF9E94DEA4C00282FD004F0DEF9B3
:10252000E8A003F083FEDB4804F04BF90022DBA1B6
:1025300005F10800FFF7B4FF0122D8A105F10B0057
:10254000FFF7AEFF0222D5A1A01DFFF7A9FF0322CE
:10255000D2A104F10900FFF7A3FF0422CFA104F1E7
:102560000C00FFF79DFF0522CCA1D848FFF798FF8C
:10257000A5F1800090F88810B9B119E0D4A003F05B
:1025800055FEC44804F01DF9D5A000882881D4A0C8
:102590000088A5F80B00D3A00088E080D1A00088B7
:1025A000E080D0A00088E08022E0CDA109882981C8
:1025B00090F88B0018B9CAA00088A5F80B00C04895
:1025C000801D007810B9C7A00088E080BC480930A1
:1025D000007818B9C3A00088A4F80900B8480C30E6
:1025E000007810B9BFA00088A081B848007818B959
:1025F000BDA1B64804F0ABF9B44804F0BAF8BD493F
:10260000086070BD2DE9F04F89B0BBA1A6A003F012
:102610000DFEA04804F0D5F89FA1B7A004F037F94B
:10262000A64FB84E803F07F14001894610318A46D7
:1026300020398B46263100910C31019116310491DD
:10264000103905915839069110310791002855D05D
:1026500004F044F99BA003F0E9FD8E4804F0B1F8C2
:102660000022A5A13846FFF71BFF0122A2A1484680
:10267000FFF716FF0222A0A15046FFF711FF032229
:102680009DA107F15C00FFF70BFF04229AA15846B9
:10269000FFF706FF052298A10098FFF701FF062229
:1026A00095A10198FFF7FCFE072293A10498FFF77C
:1026B000F7FE082290A10598FFF7F2FE09228EA1ED
:1026C0000698FFF7EDFE0A228BA10798FFF7E8FEB8
:1026D00000252C46B84608EB050717F8780FFDF7DC
:1026E000FDFD38707878FDF7F9FDC0B27870397863
:1026F000A1F16102052A3FD857393EE074A003F0EA
:1027000095FD644804F05DF86C487FA1803804F0C2
:102710001EF981A1484604F01AF983A1504604F03D
:1027200016F983A083A10088A7F85C00584604F03E
:102730000EF982A1009804F00AF982A1019804F030
:1027400006F9B07873793279F1788DE80F007378F3
:1027500032787EA1049803F07FFD6FA1059804F004
:10276000F6F882A1069804F0F2F8079809B06AA179
:10277000BDE8F04F04F0EBB8303901F0FF0CA0F1E8
:102780006101052901D8573800E03038C7B2002070
:102790003055012303FA00F1394202D0325D0A4379
:1027A0003255401CC0B20428F4D30420021F03FA9F
:1027B00002F111EA0C0F04D0315D03FA00F211436B
:1027C0003155401CC0B20828F0D3AD1C641CE4B2E3
:1027D000EDB2062CFFF47FAF98F80000444638B9FC
:1027E00066A003F023FD354847A1803804F0AFF818
:1027F00094F8400030B96AA003F018FD46A148469D
:1028000004F0A5F894F8500030B970A003F00EFD64
:1028100045A1504604F09BF894F85C0030B977A0CD
:1028200003F004FD42A00088A4F85C0094F8300096
:1028300030B97DA003F0FAFC3EA1584604F087F8B9
:1028400094F8560018B981A003F0F0FC14E118E1E7
:102850005B496E696369616E646F207364206361B4
:1028600072645D002E2E2E5B6E616F20666F726D3E
:10287000617461646F5D0D0D000000002E2E2E5BF3
:102880006572726F5D0D0D002E2E2E5B6F6B5D0DF0
:102890000D000000BCEA0720720000006366672E8E
:1028A00063666700000000005B4F70656E2066691C
:1028B0006C652025735D2E2E2E000000800E00100A
:1028C00028C007205B6F6B5D0D000000E4C8072087
:1028D0005B6E6F7420666F756E645D0D00000000A6
:1028E00030000000310000003136373737323135E3
:1028F00000000000300000107463702E63666700F3
:102900000000000044C007203139322E3136382E05
:10291000302E3200000000003139322E3136382E90
:10292000302E31000000000035303034000000004F
:10293000350000004D4F54454C000000353030321A
:1029400000000000353030300000000025303258E3
:102950002E253032582E253032582E253032582E22
:10296000253032582E253032580000003235352EB1
:102970003235352E3235352E300000005B53746110
:1029800074696320495020656D7074792E204C6FF6
:102990006164696E672064656661756C745D0D00C5
:1029A0005B4950207365727665722072656D6F7435
:1029B0006520656D7074792E204C6F6164696E6757
:1029C0002064656661756C745D0D00005B506F720C
:1029D00074207365727665722072656D6F74652000
:1029E000656D7074792E204C6F6164696E67206428
:1029F000656661756C745D0D000000005B496E7466
:102A0000657276616C207061636B657420656D70B2
:102A100074792E204C6F6164696E6720646566610D
:102A2000756C745D0D0000005B486F7374204E611F
:102A30006D6520656D7074792E204C6F6164696ED0
:102A4000672064656661756C745D0D005B506F7224
:102A50007420736572766572206C6F63616C20659B
:102A60006D7074792E204C6F6164696E67206465A7
:102A70006661756C745D0D00AFF24011009803F053
:102A800066FF94F8620038B9BFA003F0CFFBAFF245
:102A90004C11019803F05BFF94F8780030B9C3A0A3
:102AA00003F0C4FBC949049803F051FF94F868008F
:102AB00038B9C7A003F0BAFBAFF2A411059803F030
:102AC00046FF207C38B9CBA003F0B0FBAFF2641115
:102AD000069803F03CFF94F8200038B9CDA003F02D
:102AE000A5FBAFF2CC11079803F031FF09B0D24833
:102AF000BDE8F04F03F065BE7FB5FFF783FDFFF73C
:102B0000FDFCCE49CEA003F091FBCC49D3A01639F1
:102B100003F08CFBC949D6A0891F03F087FBC74986
:102B2000DAA0891D03F082FBC449DEA00C3103F05A
:102B30007DFBC249DFA0563903F078FBBF49E2A014
:102B4000463903F073FBBD49E4A0363903F06EFB50
:102B5000BA49E8A0263903F069FB9C48817844799A
:102B60000379C2788DE81E00B44943780278223197
:102B7000E5A003F05BFBB149EEA0123103F056FB78
:102B8000F1480168F1A003F051FBAC48323003F08A
:102B9000F0FD08B1F5A100E0F5A1F6A003F046FBB9
:102BA000A648353003F0E5FD08B1F8A100E0F9A131
:102BB000FAA003F03BFBFF4803F0DBFD08B1FEA4E5
:102BC00000E0FFA4FB48C01E03F0D3FD08B1FAA546
:102BD00000E0FBA5F748801F03F0CBFD08B1F6A18C
:102BE00000E0F7A123462A46F7A003F01FFB04B03C
:102BF0009148BDE8704003F0E4BD2DE9F04FFC487A
:102C0000D9B0007800287ED0EA4D4FF496710C3D83
:102C1000A888401C80B2B0FBF1F2A88001FB120032
:102C2000B0B9E44803F0A5FD064605F1090003F03C
:102C3000A0FD0446A81D03F09CFD02462346EDA11D
:102C4000F048009603F008FBEE490220FDF7A0FED5
:102C50006878002400287ED06C70FF2001F0B7FB5C
:102C6000002601AD06EB860005EB8000142103F081
:102C70005EFF761CF6B20F2EF4D3704901A85639C8
:102C800003F065FE6D4906A816398046559103F09C
:102C90005EFE6A490BA8891FCDE94C1003F057FE70
:102CA000664910A8891DCDE94E1003F050FE634916
:102CB00015A82639CDE9501003F049FE5F491AA83E
:102CC000CDE9521003F043FE5C491FA80C3100917E
:102CD000549003F03CFE594924A822310F465690E7
:102CE00003F035FE554929A812310E46579003F0DE
:102CF0002EFE52492EA846398246589103F027FEEF
:102D00004E49363900E0A9E133A88B46814603F0ED
:102D10001EFE002101EB8102002005EB82031A5CFC
:102D20000D2A01D00A2A00D11C54401CC0B214281C
:102D3000F5D3491CC9B20F29ECD3FFF763FC3F4917
:102D400001A8563903F046FFE8B94046559903F00B
:102D500041FFC0B900E084E1DDE94C1003F03AFF27
:102D600088B9DDE94E1003F035FF60B9DDE9501098
:102D700003F030FF38B9DDE9521003F02BFF10B932
:102D80000099549840E156E15B506F72742075646D
:102D90007020656D7074792E204C6F6164696E6768
:102DA0002064656661756C745D0D00005B4D616348
:102DB00020656D7074792E204C6F6164696E672098
:102DC00064656661756C745D0D00000044C0072089
:102DD0005B49502061707020656D7074792E204CB5
:102DE0006F6164696E672064656661756C745D0D02
:102DF000000000005B4D61736B20656D7074792E6F
:102E0000204C6F6164696E672064656661756C74DF
:102E10005D0D00005B4761746577617920656D70B9
:102E200074792E204C6F6164696E672064656661F9
:102E3000756C745D0D000000BCEA0720560E001092
:102E40005B53657276657220506F7274204C6F63AD
:102E5000616C3A2025735D0D000000005B536572C4
:102E60007665722049503A2025735D0D0000000000
:102E70005B53657276657220506F72742052656D77
:102E80006F746F3A2025735D0D0000005B496E740E
:102E9000657276616C205061636B65743A202573AE
:102EA000735D0D005B506F7274205544503A2025BD
:102EB000735D0D005B5374617469632049503A205F
:102EC00025735D0D000000005B537461746963201D
:102ED0004D61736B3A2025735D0D00005B53746187
:102EE00074696320476174657761793A2025735D61
:102EF0000D0000005B486F7374206E616D653A20B1
:102F000025735D0D000000005B4D41433A202573A1
:102F10002E2E253032582E253032582E253032585C
:102F20002E253032582E253032582E253032585D1D
:102F30000D0000005B49502041706C696361E7E35C
:102F40006F3A2025735D0D00300000105B456E6107
:102F5000626C652F44697361626C6520546F7563A0
:102F6000683A20307825585D0D000000496E000059
:102F70004F7574005B4D6F64652041723A20537742
:102F8000696E672025735D0D0D000000456E61625E
:102F90006C65000044697361626C65005B46756E28
:102FA00063204952205363656E653A2025735D0D99
:102FB0000000000034C0072044494D4D4552000038
:102FC0004F4E4F46460000005B54797065204F75A8
:102FD000742044696D6D65723A20303A25732E2E47
:102FE000313A25732E2E323A25735D0D0D00000007
:102FF00013C00720544449202575202575202575C8
:103000002100000064C0072003F0E4FD98B93946B0
:10301000569803F0DFFD70B93146579803F0DAFD9A
:1030200048B95046589903F0D5FD20B9594648464D
:1030300003F0D0FD80B180A003F0F8F8874803F0DA
:10304000C0FB4FF08040864941604FF0AA010172F9
:103050004FF055010172FEE7FFF750FA59B0BDE895
:10306000F08F8048406B8001287817D40028F5D174
:10307000A878401CC0B2A8701428EFD301262E7087
:10308000AC7079A003F0D2F8012001F097F87348F2
:1030900003F097FBFFF7E8F96E70DFE70028DDD05B
:1030A0002C7076A003F0C2F86C4803F08AFB032072
:1030B00001F084F8D2E72DE9F74F002480464FF065
:1030C0008049ADF5A25DAA20254689F808004FF099
:1030D000550A89F808A027466E4607EBC70000EBA3
:1030E000071006EB8000642103F021FD7F1CFFB276
:1030F000322FF2D341F288306421684403F017FD87
:1031000041F2EC3BEB445F463421384603F00FFDBF
:103110004146384603F01BFCAFF684010DF58052A2
:10312000D2F8440403F0B3FB5FEA000859D0ABF1D6
:103130006407404606F02CFD411C1BD0322C19D2EE
:1031400078556D1C0A280FD104EBC40000EB041065
:10315000002506EB8000394603F0F9FB6421384670
:1031600003F0E5FC641CE4B2AA2189F8081089F890
:1031700008A0DEE7404603F0B1FB0025A8465F4605
:1031800008E0785D0D2801D00A2801D107F80580F4
:103190006D1CEDB2384603F0FEFBA842F1D80DF5E8
:1031A0008050D0F8480400EBC00101EB001006EBA2
:1031B00080056421284603F0BAFC3946284603F00E
:1031C000C6FB33A1284603F005FC0DF5805031A164
:1031D000D0F8440403F05BFB050002D00027B046A2
:1031E00022E000200DF24C4D0DF5805D37E707EB36
:1031F000C70000EB071108EB8106324626A12846DE
:1032000003F020F8AFF66C110DF58050D0F84404AF
:1032100003F0E0FC38B13246394620A003F006F84E
:103220000E4803F0CEFA7F1CA742E0DB284603F0ED
:1032300055FB0120D6E700005B54435020436F6EDE
:10324000666967207669612053442E2E5265696E47
:10325000696369616E646F5D0D0D0000BCEA072053
:10326000FFFF030000C009205B53442043617264E8
:1032700020496E73657269646F5D0D005B53442075
:103280004361726420526574697261646F5D0D0000
:103290000D0A000077000000257300005772697462
:1032A000652E2E2E4C696E68612025753A20257397
:1032B0000000000010B504460A2803D10D210020AB
:1032C000FDF732FB21460020FDF72EFB204610BD06
:1032D0000020FDF73BBBEDE770B50D4604463EA16F
:1032E00003F078FC78B13EA1204603F073FC68B18E
:1032F0003DA1204603F06EFC58B129462046BDE8AA
:10330000704004F0DDBE48F2010070BD48F20200DA
:1033100070BD48F2030070BDB0F5004F01DD002024
:10332000704704F065BE70B50D46A0F50041144627
:10333000023908D12CB115F8010BFFF7BBFF641E51
:10334000F8E7002070BDB0F5004F02DD4FF0FF3010
:1033500070BD2946BDE8704004F0AEBF70B50D46A3
:1033600048F201011446884208D12CB1FFF7B0FFA2
:1033700005F8010B641EF8E7002070BDB0F5004FA2
:1033800002DD4FF0FF3070BD2946BDE8704004F00B
:103390004BBFB0F5004F01DD0120704700207047A2
:1033A000B0F5004F02DD4FF0FF30704704F062BF10
:1033B000B0F5004F02DD4FF0FF30704704F042BE21
:1033C000B0F5004F01DD0020704704F05DBE012024
:1033D00070477047FEE70000535444494E00000018
:1033E0005354444F55540000535444455252000026
:1033F0002DE9F04393B005468846002491461F46C8
:1034000026463421684603F092FB27B1012F26D0CF
:10341000022F2BD048E0B8F1060F01DCE6A10FE047
:10342000B8F1120F01DCE8A10AE0EC4803F0A1F9C1
:1034300098B1EB480078800601D5EAA100E0EFA141
:10344000684603F0C7FA4246F2A10DA802F004FF55
:103450000DA9684603F0BEFA0CE0F0A1F0E7434680
:10346000F4A2F7A1684602F0F7FE03E0F7A1684670
:1034700002F0F2FE6946F7A002F0D8FEFB4803F026
:10348000A0F9FBA1684603F002FA07000CD04FF642
:10349000FF714FF4C87035F814208A4208D125F81E
:1034A0001490641C26B207E00B2013B0BDE8F08333
:1034B000641C24B28442EEDB00248046B44209D06E
:1034C00035F81420EBA1384602F0BCFE641C24B28F
:1034D0004445F3DB384603F001FA0F20E5E72DE918
:1034E000F0478CB006460F4600252C462021684642
:1034F00003F01DFBA846CDF82080CDF82480CDF840
:10350000288017B1022F1FD022E0062E01D8AAA1D1
:103510000EE0122E01D8ACA10AE0B04803F029F960
:1035200080B1AF480078800601D5AEA100E0B3A11C
:10353000684603F04FFA6A463346C1A1104602F0CE
:103540008BFE05E0B5A1F3E7C0A1684602F084FE5A
:103550006946CAA002F06AFEC44803F032F9C9A164
:10356000684603F094F982464FF6FF724FF44871B3
:10357000C54803F0B2FAC44EBAF1000F11D00DF1F4
:1035800020094746504606F003FB411C22D0232861
:1035900011D00D2819D00A2817D009F80400641C8E
:1035A000F0E7BAA002F042FEB04803F00AF90020AA
:1035B0000CB0BDE8F08708A803F0DBF880B226F86D
:1035C0001500102806D96D1CDCE708970997002420
:1035D0000A97D7E7B2A002F029FEA44803F0F1F859
:1035E000504603F07BF936F81500B149421E0F2A08
:1035F00000D3072008700F20DAE730B589B020210A
:10360000684603F094FA00244FF41B652346A9A2F0
:103610008BA1684602F020FE684606F09DF9641C06
:1036200024B2AC42F2DB09B030BD10B588B004461C
:103630002021684603F07BFA23469EA280A16846BB
:1036400002F00AFE684606F087F908B010BD2DE9C1
:10365000F34F8BB000240B98FFF741FFA04600B357
:103660000020FEF734FB152000F07BFA202101A892
:1036700003F05DFADFF81092924F40F2B32BB9F8E5
:10368000000080008246B9F8020080000990AAF587
:103690000760B0F5F07F0ED84FF41B708AA1386038
:1036A00036E08E490020C1F80080FEF7F7FA0020CE
:1036B0000DB0BDE8F08F50460AF0D0FE05460E462C
:1036C000874A884B0BF018F80BD84FF03332864BF3
:1036D000284631460AF0D6FE03D884A1C7F800B0C8
:1036E00016E07F4A874B284631460BF005F80BD889
:1036F0004FF03332844B284631460AF0C3FE03D8DC
:1037000082A1C7F800B003E040F2912085A13860A3
:1037100001A803F01CF9386800F0A4FA4F46864D62
:10372000864EDFF88C914FF0010B37F814004FF6FE
:10373000EF711038884224D2E0073BD000F01FFB25
:103740000020C5E900005B46C6F800B002207060AA
:10375000C6F804B03068C007FCD03360D5E900017A
:10376000401C41F10001C5E9000137F81420801A1E
:1037700071F10001EED3C6F80480641CB4F5C87F73
:10378000D3D34446C6F8048000F0F9FA0020FEF7CF
:1037900085FA52486AA1046099F80000420700D4F3
:1037A00068A1009166A3810700D466A364A2C00744
:1037B00001D1CEE0C8E0CEE0494E465241524544E8
:1037C0005C54565C49525F00494E46524152454452
:1037D0005C484F4D455C49525F000000880E001068
:1037E0003CC00720494E4652415245445C41525C20
:1037F00053574F4E5C49525F00000000494E4652FD
:10380000415245445C41525C53574F46465C4952D5
:103810005F00000025752E5458540000494E465252
:10382000415245445C41525C53574F55545C495298
:103830005F000000434D4449525C49525F00000064
:10384000257325752E5458540000000049522E54FB
:10385000585400005B536176652049522E2E2E612C
:103860006464723A25735D0D00000000BCEA072015
:10387000770000002575230D0A0000000D5B2573FD
:103880005D0D000072000000A4C207205B46696C59
:1038900065206E6F7420666F756E645D0D000000AC
:1038A0005B46696C6520636C6F7365645D0D000039
:1038B0000C000010494E4652415245445C49525F4B
:1038C0000000000038C0072034304B487A202853CD
:1038D0004F4E592F53495243290000000800001051
:1038E000CDCCCCCCCC008940338F8E4033364B4886
:1038F0007A20285243352F5048494C4950532900CB
:1039000000000000CCBEA24033E9A64033364B484D
:103910007A20285243362F5048494C4950532900A9
:103920000000000033384B487A2028444546415572
:103930004C5429000000000018C0072000800040FF
:1039400053494D004EC34F0099F8000000F0C3F9F1
:10395000F6E6AFF2100289A00B9902F067FC9148DD
:1039600002F02FFF01A990A002F060FC514692A046
:1039700002F05CFC95A0099902F058FC894802F01D
:1039800020FF012094E62DE9F74F82B000240F209C
:103990000090274625460126A0464FF6FF724FF4B9
:1039A0004871904803F099F8002000F007FC1520BA
:1039B00000F0D7F80020FEF78AF98B4B0020DFF8E3
:1039C0002CC2C3E900004FF0010ACCF804A0DFF8D4
:1039D00020924FF0804E8346DCF80000C00708D0EC
:1039E000CCF800A0D3E90001401C41F10001C3E97B
:1039F0000001D3E90001890041EA907180004CF296
:103A00005032801A71F1000023D3D9F8741048465F
:103A1000890104D4816F41F00071816703E0C16FB7
:103A200041F00071C167AA218EF8081055218EF867
:103A300008100020C3E900007F1CC82F09D9CCF86A
:103A400004B003246BA002F0F1FB564802F0B9FE6B
:103A50006AE0D9F854000007BED4CCF804B0AA221A
:103A60008EF8082055228EF80820674F0122A7F80B
:103A700002B0CCF800200220CCF80400CCF80420DE
:103A8000DA465A480168C90705D0012101607888E3
:103A900000F1010078809EB3D9F85400000702D4E9
:103AA00025B1002501E00DB90125641CB4F5C77FDF
:103AB0000CD94FF6FF724FF448714A4803F00DF8E5
:103AC00000240120A7F802A026468046454BD44694
:103AD000504633F81410A1F57F42FF3A00D0084653
:103AE0007988084480B2494923F81400A7F802C035
:103AF000B1EB800F05D83B494FF6FF7021F8140059
:103B000001E0002EBDD13949C1F804A00A2C02D928
:103B1000B8F1000F11D022463DA0009902F086FBBB
:103B2000204802F04EFE04240020FEF7B7F8424978
:103B30002046C1F800B005B0BBE521463FA0029A7F
:103B400002F074FB174802F03CFE02A90DC901B255
:103B50002448FFF74DFC0F2801D00B24E4E70F2485
:103B6000E2E700F01F020121914040094FF0E022FE
:103B700002EB8000C0F88011704700000D2A2A2A4D
:103B80000D5B49523A25752E2E506F72743A3028CB
:103B90002573292031282573292032282573295D92
:103BA0000D000000BCEA07204672657175656E6302
:103BB00069613A2025730D004C65616420494E20EF
:103BC0004F4E3A20257575730D0000004C656164F9
:103BD00020494E204F46463A20257575730D2A2AF6
:103BE0002A0D0D00A4C2072018C007200080004045
:103BF00000C009205B54696D656F7574206C656148
:103C0000726E5D0D000000000C000010C0D40100B9
:103C10005B4572726F72204C6561726E2025752E45
:103C20002E54727920616761696E2E2E50756C7307
:103C300065733A25755D0D00080000105B49522040
:103C400052656365697665722E2E2E50756C7365AC
:103C5000733A25752E2E2E414444523A25755D0D3A
:103C60000D0000005B4988614008C8610862486235
:103C70000864486400208864072008657047554B35
:103C800000B51A68D00703D053480068FFF7EAFF71
:103C900018681043186000BD30B54E4D0022022058
:103CA00068601446EA6001236B6140F29120FFF7DF
:103CB000D9FFEC646C604949086C03FA02F52843AB
:103CC0000864521CD2B2032AF6D34C6544484FF420
:103CD0000071016030BD00B542493E4A08B110286C
:103CE00018D3086920F002000861086940F001005B
:103CF0000861D06C40F40070D064086920F00800BE
:103D00000861086940F004000861D06C40F48060EC
:103D1000D0641DE0C3070BD00B6923F002030B61D5
:103D20000B6943F001030B61D36C43F40073D3645C
:103D300083070BD50B6923F008030B610B6943F074
:103D400004030B61D36C43F48063D36440070BD549
:103D5000086920F020000861086940F0100008613F
:103D6000D06C40F40060D0640020D060012050612D
:103D700019480068FFF776FF0920506000BD15481C
:103D80000021C16441601748016921F0020101610D
:103D9000016921F00101016110494A6D22F001021F
:103DA0004A65026922F008020261026922F00402F7
:103DB00002614A6D22F002024A65026922F0200285
:103DC0000261026922F010020261486D20F00400D5
:103DD000486570470080014038C0072000C00920B6
:103DE00000E100E000C0024010B590B0044614218C
:103DF0000AA802F09CFE1421684602F098FE1421E5
:103E000005A802F094FE21460AA802F0A0FD0020B9
:103E100002466C460AAB195C3A2909D030390A29A6
:103E200000D31A54195C2154401CC0B21428F2D398
:103E30000021401CC0B205AC1A5C0D2A08D00A2A29
:103E400006D06254491C401CC9B2C0B21429F3D335
:103E5000684602F08EFC804C608005A802F089FC68
:103E6000C0B220709DF814103F290DD010280DD835
:103E700060B16088B0F51B6F08D29DF8000028B1D2
:103E800021B1012010B010BD0220FBE70020F9E7AE
:103E900010B5FFF7A9FFC8B16F4C002221786088E8
:103EA000FFF771FD024603280ED0042A0CD0052A24
:103EB0000AD0062A08D00B2A06D0628867A1BDE87E
:103EC0001040684802F0C8B967A1F8E70722FBE78D
:103ED00010B5FFF789FFD8B15F4C6088042817D26E
:103EE00001222178FFF74FFD024603280ED0042A55
:103EF0000CD0052A0AD0062A08D00B2A06D06288E0
:103F000056A1BDE81040574802F0A6B956A1F8E7FF
:103F10000722FBE710B5022207210020FFF733FD3F
:103F2000024603280DD0042A0BD0052A09D0062A00
:103F300007D00B2A05D0BDE810404EA1494802F039
:103F40008BB9BDE8104048A1464802F085B910B5CC
:103F500002210020FFF77BFB28B1BDE8104045A1FE
:103F6000404802F079B9BDE810400A223EA13D4820
:103F700002F072B910B502F0FCFB374C80B2B0F51C
:103F80001B6F60800DD20021FFF761FB10B16288CA
:103F900032A101E00A2234A1BDE81040314802F00C
:103FA0005BB90822F7E710B502F0E3FB2A4C82B2B6
:103FB000B2F51B6F628006D3BDE8104008222AA12B
:103FC000284802F049B913462BA1264802F044F9CB
:103FD0006088BDE81040FFF728BB10B5FFF70DFB68
:103FE000BDE810402EA11F4802F036B92DE9F0417E
:103FF00002F0BFFB184D80B2B0F51B6F688001D393
:10400000082205E00021FFF76AFA0F2806D00922EE
:10401000BDE8F04114A1134802F01EB9698829A037
:1040200002F004F92B4E00244FF4C87736F8142020
:10403000214629A002F0FAF8641C24B2BC42F5DB48
:10404000284802F0BEFB6B88BDE8F0411A4626A165
:10405000044802F001B90000100000104F4B202569
:104060007500000064C007204552524F522025754C
:10407000000000004F4B00004F4B202575205B4592
:104080007261736520696E66726172656420696E23
:1040900020616464726573733A2025755D000000C9
:1040A0004F4B2031205B457261736520616C6C2041
:1040B000696E667261726564206F66206D656D6FF2
:1040C00072795D00416464722049523A25752E2E42
:1040D0002E0D0000A4C207205B253033755D3A2504
:1040E000750D0000BCEA07204F4B202575205B5260
:1040F00065616420696E66726172656420696E2014
:10410000616464726573733A2025755D0000000078
:1041100030B58DB005460C463421684602F007FDE7
:104120002346FBA2FEA1684602F096F8FFA168466E
:1041300002F0ADFB040009D02A46FDA102F082F88E
:10414000204602F0CBFB01200DB030BD0020FBE784
:1041500070B588B005460E4600242021684602F05E
:10416000E6FC2B463246EEA1684602F075F8F2A155
:10417000684602F08CFB050013D02021684602F04F
:10418000D6FC6E4601E03055641C284605F000FD63
:10419000411C01D0102CF6DB284602F09FFB102CAE
:1041A00002D0002008B070BD1E21E44802F09DFC42
:1041B0006946E24802F0CBFB0120F3E7F0B50021AD
:1041C000AA2463070D461C7255271F72DC4A9669A4
:1041D00046F480369661012805D020B3022828D005
:1041E000032854D058E000250020014602E0401C7E
:1041F00041F10001D34E861B71F10006F7D35069DF
:10420000C00304D4906940F48030906103E0D06929
:1042100040F48030D0616D1CEDB2042DE4D33BE05E
:10422000491C45F10005C848081A75F10000F7D38C
:1042300032E000251C721F720020014602E0401C83
:1042400041F10001C14E861B71F10006F7D35069A0
:10425000C00304D4906940F48030906103E0D069D9
:1042600040F48030D0615069000104D4906940F07E
:104270000060906103E0D06940F00060D0616D1C87
:10428000EDB2062DD6D307E0491C45F10005B04834
:10429000081A75F10000F7D31C721F72D06940F440
:1042A0008030D061F0BD70B504461022A9480123CA
:1042B00003FA02F10568521C8D430560172AF7DDE9
:1042C000A54D102000EB44009C49A870C4EB0410DD
:1042D0003C3111F81020002A39D001EB40019748F9
:1042E0006C701E3002F033FB944A9CA11E329D4834
:1042F00001F0B2FF9B490220FCF74AFB8F4A21469E
:104300001E3299A001F092FF9D4802F05AFA002057
:10431000FFF754FF93490220FCF73AFB874A6B787A
:104320001E3298A18F4801F097FF984E00248D48C7
:1043300002F031FBC1B2325D01238A4801F02DFD4C
:10434000641C042CF3DB00206861A86109E02146AD
:104350008FA001F06BFF8A4802F033FA0320FFF7C9
:104360002DFFBDE87040A0217E4802F0BEBB2DE9C4
:10437000F041AA256C0786B02572552626728C4816
:1043800002F0F7F907468B4802F0F3F980468A48B5
:1043900002F0EFF90246434688A101A8009701F018
:1043A0005BFF01A90220FCF7F3FA68490020401CDA
:1043B0008842FCDB0020FFF776FF257226728348D7
:1043C000017841F00101017006B0BDE8F0812DE9EE
:1043D000F047DFF8849100252C4699F80320294600
:1043E0000AB97A4A1170FF2805D00446401CC6B2AB
:1043F000524F3C373DE00426FAE71E214F4802F0B9
:1044000074FBC4EB041007EB400080461E2102F051
:104410006CFB3FA12046FFF79BFE38B14749404661
:1044200002F095FA4246214669A01BE0012534B10D
:10443000012C07D0022C09D0032C0BD00FE03846FA
:1044400069A10AE03D486DA15A3006E03B4870A1E1
:10445000783002E0394873A1963002F078FA42468B
:10446000214675A001F0E2FE454802F0AAF9641C5D
:10447000E4B2B442C1D399F80310002909D1012153
:1044800089F803100DB1032000E00120BDE8F047DA
:1044900094E6BDE8F0872A48016A41F000410162D4
:1044A000016A41F080410162016821F00071016000
:1044B000016821F400010160016821F08061016060
:1044C000016821F080710160234900200A310880D1
:1044D00070471B4910B5886B40F000408863886BBB
:1044E00040F080408863C86B40F00040C863002003
:1044F000401C80B2FF28FBD3AA235A07137255240D
:1045000014724869800101D4002010BDAEE00000A3
:1045100044494D4D45525C5343454E455F000000B4
:10452000257325752E5458540000000077000000B4
:1045300025730D0A0000000072000000F8C8072073
:1045400000C0092020A10700E0930400808D5B00DB
:10455000C0C62D0040C007201400001025732100A4
:104560000000000064C007205B546F75636820532F
:1045700063656E65282575293A25735D0D0D00006C
:10458000BCEA0720257325750D0A00005C000010A9
:104590005B546F756368205363656E6528257529C4
:1045A0003A6E6F7420666F756E645D0D0D000000CD
:1045B00034C0072031C007202EC0072054444920B2
:1045C0002575202575202575210000003CC0072099
:1045D0005B526561642E2E2E5363656E65202575D2
:1045E0003A2025735D0D00005345542031303031A1
:1045F000303031303031313100000000534554202B
:104600003036303036303036303030300000000058
:104610005345542030313030313030313031313148
:1046200000000000534554203030303030303030FE
:1046300030303030000000005B526561642E2E2E59
:104640005363656E65202575206E6F7420666F75E7
:104650006E642E2E2E4C6F6164696E6720646566F1
:1046600061756C743A2025735D0D00004869000285
:1046700001D4022049E74869400101D4042044E7FD
:104680004869C00101D406203FE7886B40F0004034
:104690008863886B40F080408863C86B40F080403E
:1046A000C8630020401C80B2FF28FBD31372147231
:1046B0004869800101D4012027E74869000201D43C
:1046C000032022E74869400101D405201DE748691D
:1046D000C00101D4072018E7082016E72DE9F04FA4
:1046E0009DB000242646642102A81B9402F01FFA04
:1046F000FFF7EFFEBA49DFF8EC924FF0FF0BA1F1A4
:104700000A054FF0010808286FD00A88EB68C2F349
:1047100000021A436AD1A1F80080B349B34F0DF1EA
:104720006C0A0091082814D2DFE800F004220B4F35
:1047300014521B55E869C0030BD51020A870002047
:1047400005E0E8694003F7D51220A8700120FFF7C3
:10475000AAFD93E0E869C002FBD51420A8700220EE
:10476000F5E7E8694002F4D51620A8700320EEE7CB
:10477000E8698003EDD53878800701D49CA100E07A
:104780009CA1504602F0E3F8387840F34001491C00
:1047900061F341003870009801F0EBFF08B196A278
:1047A00000E096A2387896A1830700D495A1CDE9C0
:1047B00000A193A3800600D492A393A102A801F0C4
:1047C0004BFD1120A870012458E0E969090355D573
:1047D000E969890252D5E96909024FD5032806D053
:1047E00005280BD0072818D035E075E06EE0287852
:1047F0001E2801D2401C2870132005E028781028BC
:1048000001D9401E28701520A8702A780124D21CD6
:1048100088A1504601F020FD1DE0387840F340119A
:10482000491C61F345103870009801F0A2FF30B1C7
:104830002A7880A1D21C1BA801F00EFD08E0387870
:10484000800601D47CA100E07CA11BA802F07FF8C7
:104850001720A8700124009801F08BFF08B166A210
:1048600000E066A2297866A3CDE900A13878800629
:1048700000D464A372A102A801F0EEFCA978D9F8D3
:10488000002008FA01F01043C9F8000000F0F6F823
:10489000E4B10020FFF792FC1BA8FFF76BFB724806
:1048A000007845280BD10320FFF788FCAFF23431A4
:1048B0006D4802F08FF86C490020FCF769F802A9F6
:1048C0006AA001F0B3FC6A4801F07BFF4FF4FA7074
:1048D000E8600001286106E00E80E86808B1401E2B
:1048E000E860286978B1401E28610CD185F802B0D3
:1048F00010204446494604FA00F20B68401C9343DA
:104900000B601728F7D95B480078002816D0A878E4
:10491000FF2816D0A869401CA861B0F5FA7F0DDB0E
:10492000002042464946AE6102FA00F40B68401C82
:10493000A3430B601728F7D385F802B01DB0BDE87C
:10494000F08FAE61FAE74B4810B40078002845D0EC
:10495000494A506D224B0005A3F10A0333D418894C
:10496000401C80B21881052838D3D8884FF0030145
:1049700000F1010080B2B0FBF1F4D88001FB14001B
:10498000B8B9506F400104D4906F40F080609067D8
:1049900003E0D06F40F08060D0675069000104D41C
:1049A000906940F00060906103E0D06940F00060E1
:1049B000D0619888401C80B2988001280ED110BC2C
:1049C0000220FFF7FBBB002098801881906F40F019
:1049D00080609067D06940F00060D06110BC704783
:1049E0001E00001040C00720880E00103CC00720A9
:1049F0003334000033350000494E00004F55540059
:104A00004F4E00004F4646005B25735D205B5357B9
:104A1000494E472025735D205B49522049443A2581
:104A2000735D205B504F5745522025732041525DE6
:104A30000D000000257500003336000033370000FC
:104A40005B25735D205B5357494E472025735D20DE
:104A50005B49522049443A25735D205B54454D50D3
:104A6000202575B05D0D000064C0072025730D0082
:104A7000BCEA072013C0072000C0092070B55449C4
:104A8000172001260D784B685249CA6942F400424A
:104A9000CA61EA0706FA00F206D04F4C24682242A7
:104AA0001BD01A4219D101E01A4216D0CA6942F04D
:104AB0002002CA618A6942F400428A61401EE4D53C
:104AC000C86940F04000C861886940F040008861D2
:104AD000886940F01000886170BD8A6942F0200248
:104AE0008A61E7E72DE9F04F87B0002518223BA146
:104AF000684601F0C0FF0024354F2646E9464FF0D6
:104B0000010C4FF0AA0A4FF080484FF0550BE00718
:104B100005D079680CFA05F08143796018E019F83E
:104B20000650761C79680CFA05F008437860FFF7A8
:104B3000A5FF0021084602E0491C40F100002D4A73
:104B40008A1A70F10002F7D388F808A088F808B034
:104B5000641C302CDBDB4FF0FF307860FFF78EFFFA
:104B60001C4CA06940F00060A061A06940F080503A
:104B7000A0610020014602E0401C41F100011E4AF4
:104B8000821A71F10002F7D300207860FFF776FFF8
:104B9000E06940F00060E061E06940F08050E06171
:104BA00007B0BDE8F08F0A480078C107094804D073
:104BB000816941F08051816160E7C16941F08051B4
:104BC000C1610348416841F400614160F4E70000BD
:104BD0003CC0072000C00920300000101011000167
:104BE0000203070605041312141508090A0B0F0E19
:104BF0000D0C171640420F00808D5B0010B5C1F1FF
:104C0000200290404FF40074FF4A53150EE0002834
:104C100001DA946500E0D46500BF00BF00BF936572
:104C200000BF00BF00BFD3654000491E0029EED180
:104C300010BD70B50446F5480078012813D04FF038
:104C4000A04144F4807088620120486200200B1368
:104C50004A6BD20702D0401C9842F9D30020486228
:104C60000C6BA0B270BDE84D286C40F40070286455
:104C700020214FF0FF30FFF7C1FF04210620FFF78E
:104C8000BDFF05210120FFF7B9FF05212046FFF7F1
:104C9000B5FF00F04BFA4FF0000420464FF480714E
:104CA0004FEA4404A96500BF00BF00BFE9656A6D13
:104CB000920501D544F00104401C1028F0D300F007
:104CC00035FACEE770B50546D0480C460078012885
:104CD0000ED04FF0A04245F480709062D462002064
:104CE0001313516BC90702D0401C9842F9D370BD11
:104CF000C548016C41F40071016420214FF0FF3080
:104D0000FFF77CFF04210520FFF778FF0521012034
:104D1000FFF774FF05212846FFF770FF02210846C0
:104D2000FFF76CFF10212046FFF768FFBDE87040D9
:104D300000F0FCB92DE9FC47B44D002436202C705E
:104D4000009069466A6808469047B148016841F09A
:104D500080410160B048AF498160297800297DD049
:104D6000016921F470210161A748016C41F480714F
:104D700001644FF0A0454FF44F4028607820C5F8FB
:104D800000016420401EFDD14FF00209C5F80090DB
:104D9000302068604001686148F220002862286A7B
:104DA00020F40040286243F20F7028614FF012088F
:104DB000C5F80C804FF41070C5F800014FF4006086
:104DC000A8616426761EFDD1AC614FF4004100203D
:104DD000FFF778FF00BF00BF00BF00BF00BF00BFEC
:104DE00000BF00BF00BF8DA001F020FA944801F081
:104DF000E8FC4FF480170020FFF71BFF000402D5EA
:104E0000761CBE42F7D38FA001F010FA8C4801F057
:104E1000D8FC00BF00BF00BF00BF00BF00BF00BF85
:104E200000BF00BF4FF480510020FFF74BFF4FF44D
:104E300080360120FFF7FDFE0746800601D4761E6E
:104E4000F7D100BF00BF00BF00BF00BF00BF00BF61
:104E500000BF00BF780715D5686800E00CE040F09F
:104E600001006860D5F8000140F48060C5F80001D9
:104E70001520A8607AA008E0C16821F00F01491D43
:104E8000C16076E7C5F808807BA001F0CFF96C48D7
:104E900001F097FC00BF00BF00BF00BF00BF00BF14
:104EA00000BF00BF00BFB80702D5AC6178A003E027
:104EB0004FF48070A8617DA001F0B8F9604801F05E
:104EC00080FC814881882964418869640088A864DD
:104ED0007E4B7F4EA3F16402002002F1200100EB23
:104EE000400703EB472742F8307002EBC0077E60B3
:104EF00041F8304001EBC007401C7C600428EED331
:104F0000C5F80821C5F80C110320C5F81001C5F833
:104F100018416E4900206F4E243901F1180300EB4F
:104F2000400206EB422241F8302001EBC0025460FF
:104F300043F82040401C0328F1D305F1AC05296754
:104F40006B67C5F87890EC674FF02600C5F8540100
:104F50004FF08800C5F8380F4FF6FF70C5F83C0FCA
:104F6000686D40F00300686555F8AC0D40F0010035
:104F70002860BDE8FC8758484FF0805101607047B9
:104F800056484FF0805101607047F0B54FF0A04592
:104F9000D5F828414D4E0188243E021D56F8343084
:104FA000C91C890803D080CA491E80C3FBD1008870
:104FB00006EBC401401E40F04040641C4860032CD6
:104FC00000D10024C5F82841F0BD70B54FF0A046CF
:104FD000A4E0C6F8E80F000715D5D6F8184198E008
:104FE0003A48443850F8340041007BD5C0F30A05F4
:104FF000ED1E40F2EA518D4274D83949084271D110
:1050000045F000406FE089E000C009203400001046
:10501000C4C00F400501155000C002405B457468D4
:1050200065726E65742048617264776172652052A2
:10503000657365742E2E2E576169745D0D00000036
:10504000BCEA07205B45746865726E657420486130
:105050007264776172652E2E2E4F4B5D0D0000003D
:105060005B45746865726E65742046756C6C20448F
:1050700075706C65785D0D005B45746865726E6572
:10508000742048616C66204475706C65785D0D0015
:105090005B45746865726E65742031304D62697469
:1050A000206D6F64655D0D0D000000005B45746848
:1050B00065726E6574203130304D626974206D6F99
:1050C00064655D0D0D00000044C00720F40E001063
:1050D000FF050080F426001000E100E080E100E020
:1050E0000000901B0FE003F015F960B11749021D95
:1050F000ED1C51F83430A90803D020CB491E20C242
:10510000FBD107F039F8641C042C00D10024C6F848
:105110001841D6F81401A0427FF462AFD6F8E00F30
:10512000D6F8E41F08407FF454AF70BD0848016C06
:1051300021F4007101644FF48071816500BF00BFEC
:1051400000BFC16500BF00BF00BF7047900E0010D8
:1051500000C0092070B504460D461E21914801F09B
:10516000E6FC21468F4801F0F2FB29462046BDE8C7
:10517000704001F08CBB01F0B1BB034610B508468E
:10518000012102F04AFD80B210BD2DE9F04389B043
:105190000746884691462021684601F0C8FC82A156
:1051A000684601F0D4FB00247E4D05E0285D01F047
:1051B0002DF82855641CE4B27A4801F0ECFBA042BB
:1051C000F4D800246D4605E0285D01F01FF828554D
:1051D000641CE4B2684601F0DEFBA042F4D86946E4
:1051E000704801F0A2FB734E18B1307840F0020015
:1051F00030702021684601F09AFC6FA1684601F0EA
:10520000A6FB002405E0285D01F000F82855641C89
:10521000E4B2684601F0BFFBA042F4D86946614899
:1052200001F083FB18B1307840F00100307020218C
:10523000684601F07CFC62A1684601F088FB00240E
:1052400005E0285D00F0E2FF2855641CE4B26846E2
:1052500001F0A1FBA042F4D86946524801F065FB79
:1052600018B1307840F0040030703B464A460121C6
:10527000404602F0C3FD09B080B2BDE8F08310B52E
:1052800004F06AFB08B1002010BD012010BD10B56C
:1052900004F018FD08B1002010BD012010BD2DE95B
:1052A000F843494E07460C469046042802D2002097
:1052B000A6F8040100254449404604F08DFB00286F
:1052C0006DD130782E2808D196F901000028F2D04F
:1052D0002E28F0D1B0780028EDD0062F5FD2DFE87D
:1052E00007F003071B221B2238A1D6F8002115E086
:1052F00006F5847637A1F07800903379F28820465D
:1053000000F0AAFF0546B0780090737832786019F3
:1053100034A100F0A1FF41E02B4A36A1204600F065
:105320009BFF05463BE0B6F80E016421B0FBF1F2AD
:1053300001FB1200009096F80B3196F80C212FA17A
:10534000204600F089FF054696F808010C21B0FBC5
:10535000F1F201FB120202B90C220C2801D22BA09F
:1053600000E02BA0009096F80931601929A100F007
:1053700073FF054496F80601C00603D5601929A2FB
:105380002CA103E060192DA1D6F8002100F064FFE4
:10539000054460190C4A2BA100F05EFF0544A8B239
:1053A000BDE8F883043A00107463702E63666700EA
:1053B00000000000510000105343454E450000001E
:1053C0004346472E43464700F438001025640D0A33
:1053D000000000002530346425303264253032640A
:1053E00000000000253032642530326425303264FC
:1053F0000D0A000025730D0A0000000025303264FC
:105400002D253032642D253032640000414D0000DE
:10541000504D00002020253032643A25303264257A
:1054200073000000202020202020203C4449523ED0
:1054300000000000252D3231730000002532316458
:10544000000000002025730D0A0000002DE9F8433C
:10545000002504460E466F46A846002003E0395456
:10546000641C401CC0B221782E2902D009B1042846
:10547000F5D307F80080684601F07BF96D1C641CC9
:10548000EDB206F8010B042DE7D3BDE8F8832DE952
:10549000FF41FF4D6869002851D004220021FD48DA
:1054A00005F03CFF6969FB4C01F0004210434FF0EE
:1054B000000705F1040644D0491E69614DD0B1F1E1
:1054C000004F3CD101A9F448FFF7C0FFF24802A900
:1054D0001030FFF7BBFFF04803A92030FFF7B6FFFD
:1054E0006F61307801AA20F002003070002002AB1A
:1054F00003AD115C215421181E5C0E722E5C401C01
:10550000C0B20E710428F4D3E0780090A3786278DA
:105510002178E2A000F08AFEE07A0090A37A627A15
:10552000217AE6A000F082FEE0790090A37962790A
:105530002179E8A000F07AFEEC4801F042F9BDE8DC
:10554000FF816F61307840F002003070E0780090A9
:10555000A37862782178E6A0DCE703F05FFCEB48F3
:105560006861EBA000F062FEE6E72DE9F04FBFB006
:105570000C46489E15461F46FF2E0AD9E8A000F0AB
:1055800055FE3946F1A000F051FED84801F019F956
:10559000FBE24FF48071F04801F0A7FA3246394639
:1055A000ED4801F0EBFADFF8B083E178CDE90018BF
:1055B000A37862782178E9A000F038FECB4801F0AA
:1055C00000F9F2A1404601F0B0F9DFF8C4920028DA
:1055D00029D0F14805AF817846790379C2784EC762
:1055E00046780378AB4801AF8178C2784EC74178DE
:1055F00000910378E94AEAA131A800F02DFE31A814
:1056000001F0C9F986B2304608F0B4F9074631A96D
:1056100007F059FC00963B462A46214699F80300BC
:1056200008F02AFAB1E2EBA1CB4801F07EF909AE0D
:10563000002864D0C84801F0AEF9DFF89C93142824
:105640003DD9A02109A801F072FA00242546274679
:105650000CE018F804003A281FD00D281DD007EBE5
:10566000870106EB810148556D1C641CBA4801F0A6
:1056700092F9A042EDD800244F46C4EB041007EB8A
:10568000400104EB840006EB8005284601F04DF94B
:1056900030B122462946D1A008E07F1C0025E4E76E
:1056A0002846FBF7BEFE2A46D349D4A000F0BEFD33
:1056B0008E4801F086F8641C042CDEDB65E298F865
:1056C00000004446C0EB001109EB4101A24801F083
:1056D0002CF928B12278A049CBA000F0A7FD06E064
:1056E0009D48FBF79EFEC449CEA000F09FFD7F4879
:1056F00001F067F8A021C04801F0F7F945E2CBA11D
:10570000954801F012F94FF0AA0B4FF0804A00289B
:105710007ED0002404EB840006EB8000142101F00D
:1057200006FA641C082CF5DB00242746254646466D
:105730000CE0305D3A286CD00D28FCD005EB8502DA
:1057400009A901EB8201C8557F1C641C824801F045
:1057500022F9A042EDD850480024623001F009F847
:10576000074609A801F005F841F2883541F2BA363A
:10577000874216D009A800F0FCFFA84211DB09A857
:1057800000F0F7FFB0420CDC0622AAA109A8FDF741
:1057900092FC044609A9AAA000F048FD534801F074
:1057A00010F83D48563000F0E4FF07460EA880464A
:1057B00000F0DFFF874216D0404600F0DAFFA84233
:1057C00011DB404600F0D5FFB0420CDC052299A168
:1057D0004046FDF770FC044441469FA000F026FDC2
:1057E000424800F0EEFF2C485030009000F0C1FF1E
:1057F000074613A8804600F0BCFF87421CD04046F5
:1058000000F0B7FFA84217DB404600F0B2FF01E00E
:105810009AE18AE1B0420FDC022286A14046FDF700
:105820004AFC4146009801F092F892A0009900F0DD
:10583000FDFC2E4800F0C5FF174818A940300D4662
:10584000064601F0C7F9A0B1284601F0A4F80828DF
:105850000FD9012277A12846FDF72DFC29463046B5
:1058600001F075F831468BA000F0E0FC1F4800F015
:10587000A8FF09481DA968300D46064601F0AAF99F
:1058800020B1284601F087F8082813E124E1000040
:105890004C00001080EA0720000E00100D5B4950FC
:1058A0002028535441544943293A2025642E256425
:1058B0002E25642E25645D0D000000005B4D4153D4
:1058C0004B3A2025642E25642E25642E25645D0D1B
:1058D000000000005B474154455741593A20256478
:1058E0002E25642E25642E25645D0D00BCEA07205C
:1058F0000D5B4950202844484350293A2025642E06
:1059000025642E25642E25645D0D00001E00008098
:105910000D5B44484350206661696C65645D0D0011
:105920005B4F766572666C6F77206572726F72205E
:10593000696E2074686520554450207061636B6502
:10594000742073697A655D0D000000000D5B62755F
:10595000663A25735D0D0000343D00100D2A2A2A99
:105960005B49503A2025752E25752E25752E2575F7
:105970005D205265636569766572205061636B6571
:1059800074205544503A25730D0000006D6F746506
:105990006C5F616C6C00000044C007203C0000108C
:1059A0002573203A2025752E25752E25752E2575F3
:1059B000203A20253032582E253032582E253032CC
:1059C000582E253032582E253032582E2530325858
:1059D0000D0A00005345540034C907202573206A7E
:1059E000E1206578697374656E7465206E6120636B
:1059F000656E612025750D0064C0072025732E2E6D
:105A00002E25730D0A0000002573206AE1206578B9
:105A1000697374656E7465206E612063656E6120C4
:105A200025630D0025730D0A00000000504F5254ED
:105A3000000000007463702E6366670000000000C1
:105A400055706461746520506F7274205564703AAB
:105A50002025730D000000005570646174652050AE
:105A60006F727420546370204C6F63616C3A202510
:105A7000730D000055706461746520506F7274205E
:105A80005365727665722052656D6F746F3A20258A
:105A9000730D000055706461746520495020536592
:105AA000727665722052656D6F746F3A2025730DA2
:105AB0000000000010D90822AFF288012846FDF747
:105AC000FAFA2946304600F042FF3146F7A000F0CE
:105AD000ADFBFB4800F075FE002C56D0F9A000F09D
